:0E0000000C9447000C9400000C9400000C942B
:10000E0000000C9400000C9400000C9400000C9462
:10001E0000000C9400000C9400000C9400000C9452
:10002E0000000C9400000C9400000C9400000C9442
:10003E0000000C9400000C9400000C9400000C9432
:10004E0000000C9400000000000000000000000002
:10005E00536F2053503A2000536F205468756E67CB
:10006E003A20000080C0080060015E000B006801AD
:10007E0066000A000400540002007B0172000000BA
:10008E00F894EE27ECBBF1E0FBBFEBBFE5BFF8E168
:10009E00F1BDE1BD8DE0A2E0BB27ED938A95E9F7B6
:1000AE0080E094E0A0E6ED930197E9F7E4E7F0E055
:1000BE0085919591009761F0A591B5910590159058
:1000CE00BF01F00105900D920197E1F7FB01F0CF12
:1000DE00EFE5EDBFE4E0EEBFC0E6D1E00C947700B3
:1000EE00E0E0EBBBEABBE8BBE7BBE5BBEFEFE4BB95
:1000FE00E0E0E2BBE1BBE7E0E3BFE0E0E2BFECBF84
:10010E00EFBDEEBDEDBDECBDE7BDE6BDEBBDEABDA1
:10011E00E9BDE8BDE2BDE5BDE4BDE3BDE5BFE4BFBD
:10012E00E9BFEAB9E0E8E8B9E0E0E0BFE6B9EDB969
:10013E00E6BFE0E1EA93FFD042B655244092770144
:10014E005092780142B65524E0917701F0917801F2
:10015E00E415F50551F04092770150927801E1E0F7
:10016E00F0E0E0937901F0937A01A0917901B091DA
:10017E007A01119721F4D20111D1309709F003C001
:10018E00F60131966F01E9E0F0E0EC15FD0594F40F
:10019E00D601E4E6F0E00E941602E0937301F093BC
:1001AE007401D60100D1E0937501F0937601D6016A
:1001BE00F5D04F01D201E4E6F0E00E9416023F01B5
:1001CE00D201F1D04F01D201E9D05F01E0E0EA9314
:1001DE00EA9363D0E0E6F1E0FA93EA939DD0EDE086
:1001EE00EA93E0E0EA9359D0E62DE3D0E82DE1D092
:1001FE00EA2DDFD0E0E0EA93E1E0EA934ED0E8E6C4
:10020E00F1E0FA93EA9388D0E9E0F0E0EC15FD0511
:10021E0014F0EC2D07C0E0917301CBD0E091750185
:10022E00C8D0E82DE05DEA9356D0E0E0E093790186
:10023E00E0937A0187CFFFCFE881E07111F0AC9A9D
:10024E0001C0AC98E881E07211F0AD9A01C0AD9892
:10025E00E881E07411F0AE9A01C0AE98E881E078C2
:10026E0011F0AF9A01C0AF9885E08A95F1F7AA9A7E
:10027E008DE08A95F1F7AA988DE08A95F1F78CC0FA
:10028E00E881EA93D9DFE881E295E883E881EA9391
:10029E00D3DF85E88A95F1F77FC0E881F0E0E55875
:1002AE00FE4FE081A981EA0FEA93EADFE981E0934C
:1002BE007F01E881E093800122960895E2E07CD0F0
:1002CE00ECE0EA93DDDFE1E077D0E0E0E09380015F
:1002DE00E0937F010895A881AA3031F0E091810169
:1002EE00A0917F01AE1768F0E0E0EA93E091800103
:1002FE00EF5FE0938001EA93D0DFA881AA3009F482
:10030E004BC0E0917F01EF5FE0937F01A89AE881F7
:10031E00EA93B6DFA89840C01A93A981BA81ED91ED
:10032E00A983BA831E2FE03019F01A93D4DFF5CFCC
:10033E00188123960895A49AA59AA69AA79AA29A86
:10034E00A09AA19AAA98A898A998E881E093810109
:10035E00E058E0937D01E881E054E0937E01E4E112
:10036E00F0E0FA93EA930E94F3012ED02DD02CD018
:10037E00E0E2EA9361DF88EC90E00197F1F7E8E2C2
:10038E00EA937EDFE4E0EA937BDFE5E8EA9378DF49
:10039E00E6E0EA9375DF92DF21960895EAE0F0E059
:1003AE000E941B020895EAE0F0E00E941602DF01AF
:1003BE00F5CFE05DEA938FCFEA9362DFE3E0F0E002
:1003CE00FA93EA930C94F301E0E3EA9335DF88ECB9
:1003DE0090E00197F1F70895E991F991309639F08F
:1003EE0080ED97E00197F1F7A8953197C9F7089539
:1003FE00F195E195F04008950024112490E1AA0FA3
:10040E00BB1F001C111C0E1A1F0A18F40E0E1F1E05
:10041E0001C0A1609A9599F7FD01D001089512D0FF
:10042E00EBDF0EF4E5DF0895E894B7FF04C0A09566
:10043E00B09511966894F7FDDBDFDEDFFD010EF45B
:10044E00D7DF0895E894F7FF02C0D2DF6894B7FFB4
:10045E0006C0A095B095119600F8039400FA089581
:00000001FF
