:0A0000000C943B000C9400000C94DB
:10000A0000000C9400000C9400000C9400000C9466
:10001A0000000C9400000C9400000C9400000C9456
:10002A0000000C9400000C9400000C9400000C9446
:10003A0000000C9400000C9400000C9400000C9436
:10004A0000000C9400000C940000436F756E7465F8
:10005A00723A0020000080C00900600154000200CA
:10006A0069015D0002006B0160000000F894EE2750
:10007A00ECBBF1E0FBBFEBBFE5BFF8E1F1BDE1BDD1
:10008A008DE0A2E0BB27ED938A95E9F780E094E042
:10009A00A0E6ED930197E9F7E2E6F0E08591959104
:1000AA00009761F0A591B59105901590BF01F001F7
:1000BA0005900D920197E1F7FB01F0CFEFE5EDBF57
:1000CA00E4E0EEBFC0E6D1E00C946B0000E010E083
:1000DA00E0E0EBBBEABBE8BBE7BBE5BBE4BBE2BBEA
:1000EA00E1BBE3BFE2BFECBFEFBDEEBDEDBDECBDD2
:1000FA00E7BDE6BDEBBDEABDE9BDE8BDE2BDE5BDD4
:10010A00E4BDE3BDE5BFE4BFE9BFEAB9E0E8E8B9A9
:10011A00E0E0E0BFE6B9EDB9E6BFE0E1EA93A2D0DC
:10012A00D801EAE0F0E00E94A4019F01D801EAE0C8
:10013A00F0E00E94A901AF01E0E0C1D0E0E6F1E001
:10014A00FA93EA9380D0E9E0BAD00A30E0E01E07D9
:10015A0014F4E42FB8D00A30E0E01E0724F0E22FAE
:10016A00B2D0E42FB0D0B2D00F5F1F4F0436E0E018
:10017A001E074CF000E010E0EAE0A1D0E9E6F1E069
:10018A00FA93EA9360D0CCCFFFCFE881E07111F007
:10019A00AC9A01C0AC98E881E07211F0AD9A01C046
:1001AA00AD98E881E07411F0AE9A01C0AE98E8818A
:1001BA00E07811F0AF9A01C0AF9885E08A95F1F71F
:1001CA00AA9A8DE08A95F1F7AA988DE08A95F1F7B7
:1001DA0074C0E881EA93D9DFE881E295E883E8818F
:1001EA00EA93D3DF85E88A95F1F767C0E881F0E002
:1001FA00E559FE4FE081A981EA0FEA93EADF5980C7
:10020A00488022960895E2E067D0ECE0EA93E1DFC5
:10021A00E1E062D0E0E04E2E5E2E0895A881AA3079
:10022A0011F0571448F0E0E0EA9343944A92DEDF73
:10023A00A881AA3009F441C05394A89AE881EA93A4
:10024A00C8DFA8983AC01A93A981BA81ED91A98307
:10025A00BA831E2FE03019F01A93E0DFF5CF188128
:10026A0023960895A49AA59AA69AA79AA29AA09ABA
:10027A00A19AAA98A898A9987880E881E058E0936A
:10028A006D01E881E054E0936E0120D02DD02CD08E
:10029A002BD0E0E2EA9379DF88EC90E00197F1F75E
:1002AA00E8E2EA9396DFE4E0EA9393DFE5E8EA938B
:1002BA0090DFE6E0EA938DDFA6DF21960895EA93C0
:1002CA00E0E0EA9393CFE05DEA93A8CFE4E1F0E0BF
:1002DA00FA93EA930C948101EA937BDFE3E0F0E07E
:1002EA00FA93EA930C948101E0E3EA934EDF88ECF7
:1002FA0090E00197F1F70895E991F991309639F074
:10030A0080ED97E00197F1F7A8953197C9F708951D
:10031A00F195E195F04008950024112490E1AA0F87
:10032A00BB1F001C111C0E1A1F0A18F40E0E1F1EEA
:10033A0001C0A1609A9599F7FD01D001089512D0E4
:10034A00EBDF0EF4E5DF0895E894B7FF04C0A0954B
:10035A00B09511966894F7FDDBDFDEDFFD010EF440
:10036A00D7DF0895E894F7FF02C0D2DF6894B7FF99
:10037A0006C0A095B095119600F8039400FA089566
:00000001FF
