:060000000C943C000C947E
:1000060000000C9400000C9400000C9400000C946A
:1000160000000C9400000C9400000C9400000C945A
:1000260000000C9400000C9400000C9400000C944A
:1000360000000C9400000C9400000C9400000C943A
:1000460000000C9400000C9400000C940000C0000A
:10005600F900A400B000990092008200F800800028
:100066009000000013006001540002000C006800BC
:100076000000F894EE27ECBBF1E0FBBFEBBFE5BF59
:10008600F8E1F1BDE1BD8DE0A2E0BB27ED938A95D5
:10009600E9F780E094E0A0E6ED930197E9F7EAE658
:1000A600F0E085919591009761F0A591B591059045
:1000B6001590BF01F00105900D920197E1F7FB0144
:1000C600F0CFEFE5EDBFE4E0EEBFC0E6D1E00C9483
:1000D6006C00E0E0EBBBEFEFEABBE0E0E8BBE7BBC0
:1000E600E5BBEFEFE4BBE0E0E2BBE1BBE7E0E3BF8B
:1000F600E0E0E2BFECBFEFBDEEBDEDBDECBDE7BDA0
:10010600E6BDEBBDEABDE9BDE8BDE2BDE5BDE4BDCA
:10011600E3BDE5BFE4BFE9BFEAB9E0E8E8B9E0E07E
:10012600E0BFE6B9EDB9E6BF42B65524EAE0F0E035
:10013600E415F50529F4F60131966F01E0E0E2BF1A
:10014600D201E4E6F0E00E940A013F01D201EAE0B2
:10015600F0E00E940A01DF01EAE0F0E00E940F01F0
:100166004F01D201EAE0F0E00E940F015F01F301C6
:1001760018D0E2E01FD0F40114D0E4E01BD0F50162
:1001860010D0E8E017D0F6010CD0E1E0EBBBE1E0DF
:10019600F0E0FA93EA930E94E700EFEFE5BBC4CFE5
:1001A600FFCFA0E6B1E0EE0FFF1FAE0FBF1FEC9131
:1001B600E5BB0895EBBBE2E0F0E0FA93EA930E9418
:1001C600E700EFEFE5BB0895E991F991309639F034
:1001D60080ED97E00197F1F7A8953197C9F7089553
:1001E600F195E195F04008950024112490E1AA0FBD
:1001F600BB1F001C111C0E1A1F0A18F40E0E1F1E20
:1002060001C0A1609A9599F7FD01D001089512D019
:10021600EBDF0EF4E5DF0895E894B7FF04C0A09580
:10022600B09511966894F7FDDBDFDEDFFD010EF475
:10023600D7DF0895E894F7FF02C0D2DF6894B7FFCE
:1002460006C0A095B095119600F8039400FA08959B
:00000001FF
