:100000000C9436000C9400000C9400000C9400003A
:100010000C9400000C9400000C9400000C94000060
:100020000C9400000C9400000C9400000C94000050
:100030000C9400000C9400000C9400000C94000040
:100040000C9400000C9400000C9400000C94000030
:100050000C940000C0F9A4B0999282F88090A0831B
:10006000C6A1868E1000600154000000F894EE27AF
:10007000ECBBF1E0FBBFEBBFE5BFF8E1F1BDE1BDDB
:100080008DE0A2E0BB27ED938A95E9F780E094E04C
:10009000A0E6ED930197E9F7E4E6F0E0859195910C
:1000A000009761F0A591B59105901590BF01F00101
:1000B00005900D920197E1F7FB01F0CFEFE5EDBF61
:1000C000E4E0EEBFC0E6D1E00C946600E0E0EBBBFC
:1000D000EABBE8BBEFEFE7BBE0E0E5BBE4BBE2BBBC
:1000E000EFEFE1BBE0E0E3BFE2BFECBFEFBDEEBD91
:1000F000EDBDECBDE7BDE6BDEBBDEABDE9BDE8BDCC
:10010000E2BDE5BDE4BDE3BDE5BFE4BFE9BFEAB9DB
:10011000E0E8E8B9E0E0E0BFE6B9EDB9E6BFE2E06B
:10012000E8BBE1E0E2BBE3B3E13019F400E010E04A
:100130000EC0E23019F401E010E009C0E43019F417
:1001400002E010E004C0E83011F403E010E085E8BC
:100150008A95F1F7E2E0E2BBE3B3E13019F404E0A1
:1001600010E00EC0E23019F405E010E009C0E43000
:1001700019F406E010E004C0E83011F407E010E0E4
:1001800085E88A95F1F7E4E0E2BBE3B3E13019F4E6
:1001900008E010E00EC0E23019F409E010E009C0F8
:1001A000E43019F40AE010E004C0E83011F40BE088
:1001B00010E085E88A95F1F7E8E0E2BBE3B3E130CF
:1001C00019F40CE010E00EC0E23019F40DE010E07C
:1001D00009C0E43019F40EE010E004C0E83011F476
:1001E0000FE010E085E88A95F1F7A0E6B1E0A00FF6
:1001F000B11FEC91EBBB85E88A95F1F790CFFFCF6B
:00000001FF
