:080000000C9432000C94000086
:100008000C9400000C9400000C9400000C94000068
:100018000C9400000C9400000C9400000C94000058
:100028000C9400000C9400000C9400000C94000048
:100038000C9400000C9400000C9400000C94000038
:100048000C9400000C9400000C94000001020408B9
:10005800102040800800600154000000F894EE274A
:10006800ECBBF1E0FBBFEBBFE5BFF8E1F1BDE1BDE3
:100078008DE0A2E0BB27ED938A95E9F780E094E054
:10008800A0E6ED930197E9F7ECE5F0E0859195910D
:10009800009761F0A591B59105901590BF01F00109
:1000A80005900D920197E1F7FB01F0CFEFE5EDBF69
:1000B800E4E0EEBFC0E6D1E00C9425011A930A9360
:1000C80000E010E0E6B3E13079F40830E0E01E0724
:1000D80014F000E010E0A0E6B1E0A00FB11FEC9131
:1000E80021D10F5F1F4FEECF85C01A93E6B3E230E0
:1000F800A1F4E0E0EBBB10E0183030F4EBB3EE0F06
:10010800E16010D11F5FF8CF10E0183028F4EBB38E
:10011800EE0F08D11F5FF9CFE9CF199108950E941A
:10012800C00131E020E800E010E00430E0E01E0704
:1001380054F4EBB3AE2FE22FE30FEA0FF3D0F9D06C
:100148000F5F1F4FF2CF31E020E800E010E00430ED
:10015800E0E01E077CF40BB21124A32FBB27EE2787
:10016800A20FBE1FF001EA1BFB0BDCD0E2D00F5F31
:100178001F4FEDCF0E94C701249608950E94BE012B
:1001880010E000E020E030E02830E0E03E07DCF45A
:1001980010E0A9014830E0E05E075CF4E02FE10FD1
:1001A800C1D0110F2417350709F41F5F4F5F5F4F48
:1001B800F1CF010FE7E0F0E0E217F30709F4C0D050
:1001C8002F5F3F4FE1CF39C01A930A9310E00FEF2A
:1001D80009C01A930A931AEA05E504C01A930A9308
:1001E8001FE000EF1BBBE4E1F0E0FA93EA930E9402
:1001F800B201A6D00991199108950E94BE0151E05B
:1002080040E800E010E00430E0E01E073CF4E42F92
:10021800E50F88D09CD00F5F1F4FF5CF50E148E025
:1002280000E010E00430E0E01E073CF4E42FE50FA6
:1002380079D08DD00F5F1F4FF5CF0E94C50126964C
:100248000895E0E0EBBBEFEFEABBE0E0E8BBE7BB1B
:10025800E5BBE4BBE2BBE1BBE3BFE2BFECBFEFBD84
:10026800EEBDEDBDECBDE7BDE6BDEBBDEABDE9BD4C
:10027800E8BDE2BDE5BDE4BDE3BDE5BFE4BFE9BF60
:10028800EAB9E0E8E8B9E0E0E0BFE6B9EDB9E6BF11
:10029800E6B3E13031F4E6B3E13011F40FDFFBCF20
:1002A80037C0E23031F4E6B3E23011F41EDFFBCFA1
:1002B8002FC0E43031F4E6B3E43011F430DFFBCF83
:1002C80027C0E83031F4E6B3E83011F457DFFBCF4C
:1002D8001FC0E03131F4E6B3E03111F475DFFBCF34
:1002E80017C0E03231F4E6B3E03211F472DFFBCF2D
:1002F8000FC0E03431F4E6B3E03411F46FDFFBCF24
:1003080007C0E03869F4E6B3E03811F476DFFBCFD4
:10031800E0E0EBBBEAE0F0E0FA93EA930E94B20176
:10032800B7CFFFCFEBBBE4E1F0E0FA93EA930C948C
:10033800B201330FE22FF0E0F595E7952E2F0895DF
:100348000BBBE4E1F0E0FA93EA930C94B201550F89
:10035800E42FF0E0F595E7954E2F0895E991F9918E
:10036800309639F080ED97E00197F1F7A89531972D
:10037800C9F708955A934A933A932A931A930A937A
:1003880008955D814C813B812A81198108810895F6
:00000001FF
